:020000020000FC
:10000000E2C0189518951895189518951895189593
:1000100051C0189518951895189508C00DC008EB93
:100020000DB900EE0EB944276627089541E02DB1C1
:1000300020642DB92BD018952FB62FB10FB84130B1
:1000400029F0423061F0433081F015C02C3B91F42F
:10005000BC9AC0E6D0E011D042E066270CC016D0B2
:100060006395643031F043E006C0299306D042E046
:1000700002C0C19A08D02FBE1895B89AC29ABA9AEF
:100080002EE72EB908952DB12F7B2DB9B898C298BF
:10009000BA9820EE2EB90895C198B99A0FBC0EBC3B
:1000A00001E600BF02E007BD07B500FFFDCF06E097
:1000B00007BD08952FB634B165B0783011F423E050
:1000C00027B97A3011F422E027B9369A703031F02E
:1000D000793038F0793011F07A3041F073952FBED5
:1000E00018953093800060928100F8CF30938200A1
:1000F000609283007FEFF2CFF894BC98BB9877278B
:100100000EE006B903E007B9E5E7F0E00CD002E045
:1001100007B9EAE6F0E007D0349A0FEF00938100C8
:100120000093830008950AE00F93EF93FF93369AAC
:100130003699FECF34B045B00CD0FF91EF910F91BE
:100140000A9591F70895F89400926A00009275005C
:100150000895EF93FF930191102F110FE10FF01D00
:10016000319240820395053009F40027FF91EF9109
:10017000019305E07724882431904190730C841C0E
:100180000A95D1F705E0902EAA2403D0372C482CED
:1001900008953324441801E1771C881C0A9541F422
:1001A000A694979439144A0410F0710C801C089599
:1001B000331C441C39184A0820F4390C4A1C889412
:1001C000EBCF0894E9CFF89400241124139400E8AD
:1001D00006BD06BC02E00EBF0FE50DBFB4DF8CDF2D
:1001E0001EDFB99A7894B19BFECFC198A2E6B0E029
:1001F0004D9025D0BC98F7CFF6CF6A30A1F7F89490
:10020000D0E0C0E649901BD0499019D007D006D065
:1002100005D004D003D002D07894E5CF06E114E6EF
:1002200033243A94F1F71A95E1F70A95D1F7089536
:1002300000E010E01A95F1F70A95E1F70895EEDF76
:10024000EDDFECDF08E00F93469458F0C19AF0DF41
:10025000C198E4DF0F910A95B1F7E0DFDFDFDEDF61
:0A0260000895C19ADBDFC198F4CFC6
:00000001FF
