:020000020000FC
:1000000032C2189518951895189518951895189541
:100010007FC0189528C11895189519C021C008EB04
:100020000DB900EE0EB9C29AC09ABA9AB898442790
:100030000092600000916D000093610000916E00DD
:100040000093620000916F00009363000895BC98D4
:10005000B299FECF40E82DB120642DB943D0189558
:100060002FB62FB10FB847FD05C046FD10C044FDA7
:1000700025C022C020FB2E7F2C3BE9F44F7745F9A9
:10008000BC9AC0E6D0E025D04064407F15C04F7BCD
:1000900029D0242F23952F702C3049F0407F422BFC
:1000A000406145FF09C0B89A29912FB905C0BC9895
:1000B00045FF10926B0013D02FBE189545FD04C06C
:1000C000299307D04064F8CFB8982EE72EB9406442
:1000D000F3CFB89AC29ABA9A2EE72EB908952DB1E5
:1000E0002F7B2DB9B898C298BA9820EE2EB90895F2
:1000F000C198B99A0FBC0EBC0092700001E600BF17
:1001000002E007BD07B500FFFDCF06E007BD08957B
:100110002FB664B075B0352F3F70383019F423E036
:1001200027B904C03A3011F422E027B9369A3030AA
:1001300031F0393048F0393011F03A3059F0339518
:10014000507F532B2FBE18956092730070927400ED
:100150005064F5CF009275001092760050683FEF22
:10016000EECFF894BC98BB9855270EE806B903E08B
:1001700007B9E4E8F0E00BD0609277007092780065
:1001800002E007B9E9E7F0E002D0349A08950AE006
:100190000F93EF93FF93369A3699FECF34B045B064
:1001A0000CD0FF91EF910F910A9591F70895F89473
:1001B00000927900009284000895EF93FF930191DB
:1001C000102F110FE10FF01D319240820395053081
:1001D00009F40027FF91EF91019305E08824992409
:1001E00031904190830C941C0A95D1F705E0A02E24
:1001F000BB2403D0382C492C08953324441801E142
:10020000881C991C0A9541F4B694A7943A144B049F
:1002100010F0810C901C0895331C441C3A184B08B4
:1002200020F43A0C4B1C8894EBCF0894E9CF01E8FA
:100230000CBD02E00ABD03E003BF02BE0DE709BD2D
:1002400000E109BFCC24089503E0902E08EE802E33
:10025000BB24A0906D00D1DFD82C0895F5DFED2CE4
:1002600000E00CBD08952FB66068EA9411F02FBE2F
:100270001895ED2C20916C002C1102C02FBE189502
:10028000C21618F0CA942FBE1895C3942FBE1895A5
:1002900005E0B02E00916D000FD000916E000CD0E3
:1002A00000916F0009D030D000110895BA94A32CAA
:1002B000F8944AD0789408953FD0A01629F0BA94C3
:1002C0000A2DF89441D0789408951ED001110CD0D5
:1002D00005E0B02E31D0A0926D002ED0A0926E001D
:1002E0002BD0A0926F00089505E0B02E05E0A02E5F
:1002F0002BD00AE0A02E28D008E7A02E25D004D0CD
:10030000BA94A32C21D0089505E0B02E03E0402E2E
:100310000CE8332411D018E03A2430FA3A24A69499
:1003200036940EF430261A95B9F74A9499F701E0FD
:1003300003D03A1000270895E199FECF0FBABEBA54
:10034000E09AADB2B3940895E199FECFE598E498B0
:100350000FBABEBAADBAE29AE19AB3940895009288
:100360006B00E0E6F0E001911191319041900015B1
:1003700019F0031508F4002700936C00431408F4E7
:10038000342C30926E0040926F0000916D00011786
:1003900031F0143008F414E010936D0055DF089527
:1003A00056FF1FC05F7BF89430907300409074003C
:1003B00030926700409268007894E9E7F0E0FDDE53
:1003C00005E0330C441C0A95E1F7832C942C0BE9CF
:1003D000A02EBB2412DFF8948092710080926500F9
:1003E0007894089557FF28C05F77F894309075008F
:1003F000409076003092690040926A007894E4E878
:10040000F0E0DBDE809077009090780038184908A3
:1004100010F4382C492C06E0330C441C0A95E1F703
:10042000832C942C02EFA02EBB24E7DEF89480925C
:100430007200809266007894089567FF0FC06F770E
:100440001EB5009171000C1549F048F41F3F31F0C2
:1004500013951EBD10937000109364000895103022
:10046000E9F31A95F6CFF89400241124139400E8C8
:1004700006BD06BC02E00EBF0FE50DBFB99AC19ADA
:1004800024DF36DE94DE6DDECADDD1DEE7DEC19824
:10049000789400916B00001162DF82DFCEDFA2DF73
:1004A000F8CF06E114E633243A94F1F71A95E1F710
:1004B0000A95D1F7089500E010E01A95F1F70A9532
:1004C000E1F70895F8DFC198F6DFC19AF4DFC1982B
:1004D000F2DFC19AF0DFC198E4DFE3DF08E00F93B9
:1004E000469448F0C19AE7DFC198DBDF0F910A9587
:0E04F000B1F7E1DF0895C19AD4DFC198F6CFCD
:00000001FF
