:020000020000FC
:10000000FFC0189518951895189518951895189576
:100010006EC0189518951895189508C00FC008EB74
:100020000DB900EE0EB9442766270895B299FECFA8
:1000300042E02DB120642DB946D018952FB62FB1CE
:100040000FB841FD07C042FD12C045FD27C044FD69
:100050001AC02EC020FB2E7F2C3B49F54D7F43F963
:10006000BC9AC0E6D0E026D04460662721C04B7F12
:100070002AD063956430D1F0406143FF19C0B89A2B
:1000800029912FB915C043FD04C0299313D04460B2
:100090000FC0B8982EE72EB940620AC04F7D639515
:1000A000643021F0B89A29912FB902C0C19A08D0C2
:1000B0002FBE1895B89AC29ABA9A2EE72EB908950B
:1000C0002DB12F7B2DB9B898C298BA9820EE2EB9D1
:1000D0000895C198B99A0FBC0EBC01E600BF02E0BA
:1000E00007BD07B500FFFDCF06E007BD08952FB699
:1000F00034B165B0783011F423E027B97A3011F4C7
:1001000022E027B9369A703031F0793038F0793002
:1001100011F07A3041F073952FBE18953093790025
:1001200060927A00F8CF30937B0060927C007FEF82
:10013000F2CFF894BC98BB9877270EE006B903E09D
:1001400007B9EEE6F0E00CD002E007B9E3E6F0E034
:1001500007D0349A0FEF00937A0000937C00089543
:100160000AE00F93EF93FF93369A3699FECF34B09F
:1001700045B00CD0FF91EF910F910A9591F708953A
:10018000F8940092630000926E000895EF93FF933D
:100190000191102F110FE10FF01D31924082039554
:1001A000053009F40027FF91EF91019305E07724D2
:1001B000882431904190730C841C0A95D1F705E096
:1001C000902EAA2403D0372C482C089533244418A9
:1001D00001E1771C881C0A9541F4A6949794391480
:1001E0004A0410F0710C801C0895331C441C39180B
:1001F0004A0820F4390C4A1C8894EBCF0894E9CFC4
:10020000F89400241124139400E806BD06BC02E013
:100210000EBF0FE50DBFB4DF8CDF01DFB99A789414
:10022000B19BFECFC198A2E6B0E04D9025D0BC981E
:10023000F7CFF6CF6330A1F7F894D0E0C0E649904D
:100240001BD0499019D007D006D005D004D003D0D8
:1002500002D07894E5CF06E114E633243A94F1F71E
:100260001A95E1F70A95D1F7089500E010E01A9584
:10027000F1F70A95E1F70895EEDFEDDFECDF08E036
:100280000F93469448F0C19AF0DFC198E4DF0F91D4
:100290000A95B1F7EADF0895C19ADDDFC198F6CF7C
:00000001FF
