:020000020000FC
:1000000059C018951895189518951895189518951C
:10001000189518951895189518950EC012C0C09887
:10002000C298B898BA9808EFA02E00EEB02E08EB50
:100030000DB9BEB844270895BC9A41E0ADB8BEB82A
:1000400018952FB6413029F04230E1F043302FBEF1
:10005000189520B31CD02F3F51F02F3541F0442785
:1000600028EB2DB9BEB8BC98C1982FBE1895C19A7F
:10007000BC98522F5078B89A2B2D2E602EB942E0A2
:100080002FBE1895B898BEB843E02FBE18952F9391
:1000900038E0269558F0C19A26D0C1981AD03A95E2
:1000A000C1F717D016D015D02F910895C19A11D04D
:1000B000C198F4CFF89402E00EBF0FE50DBF002405
:1000C00011241394ACDFC198B99ABC98BB9878946A
:1000D000FFCF03E01AE833243A94F1F71A95E1F7D9
:1000E0000A95D1F7089502E81EED1A95F1F70A95E1
:0400F000E1F7089597
:00000001FF
