:020000020000FC
:1000000075C11895189518951895189518951895FF
:100010006CC0189503C1189518950BC013C008EB58
:100020000DB900EE0EB9C29AC09ABA9AB898442790
:100030000895BC98B299FECF40E82DB120642DB947
:1000400040D018952FB62FB10FB847FD05C046FD1B
:1000500010C044FD1EC02AC020FB2E7F2C3B29F57A
:100060004F7745F9BC9AC0E6D0E022D04064407F8B
:100070001DC04F7B26D0242F23952F702C30A1F04C
:10008000407F422B406145FF11C0B89A29912FB99A
:100090000DC045FD04C029930BD0406407C0B8983B
:1000A0002EE72EB9406402C0BC9808D02FBE189528
:1000B000B89AC29ABA9A2EE72EB908952DB12F7B1D
:1000C0002DB9B898C298BA9820EE2EB90895C19863
:1000D000B99A0FBC0EBC01E600BF02E007BD07B530
:1000E00000FFFDCF06E007BD08952FB634B165B01F
:1000F000583011F423E027B95A3011F422E027B91F
:10010000369A503031F0593038F0593011F05A30B9
:1001100041F053952FBE1895309388006092890066
:10012000F8CF30938A0060928B005FEFF2CFF894A3
:10013000BC98BB9855270EE006B903E007B9E6E77F
:10014000F0E00CD002E007B9EBE6F0E007D0349A1B
:100150000FEF0093890000938B0008950AE00F933E
:10016000EF93FF93369A3699FECF34B045B00CD05A
:10017000FF91EF910F910A9591F70895F8940092ED
:100180006B00009276000895EF93FF930191102F7A
:10019000110FE10FF01D319240820395053009F4F3
:1001A0000027FF91EF91019305E077248824319097
:1001B0004190730C841C0A95D1F705E0902EAA2477
:1001C00003D0372C482C08953324441801E1771CC0
:1001D000881C0A9541F4A694979439144A0410F0A7
:1001E000710C801C0895331C441C39184A0820F4F3
:1001F000390C4A1C8894EBCF0894E9CF01E80CBD78
:1002000002E00ABD03E003BF02BE0DE709BD00E145
:1002100009BFBB24089500E00CBD0895189505E0C2
:10022000A02E009182000FD0009183000CD000918D
:10023000840009D030D000110895AA94932CF8942A
:100240004AD0789408953FD0901629F0AA94092DA9
:10025000F89441D0789408951ED001110CD005E097
:10026000A02E31D0909282002ED0909206002BD0FA
:1002700090920700089505E0A02E08EC902E2BD058
:100280000AE0902E28D008E7902E25D004D0AA941A
:10029000932C21D0089505E0A02E03E0402E0CE819
:1002A000332411D018E0392430FA39249694369446
:1002B0000EF430261A95B9F74A9499F701E003D065
:1002C000391000270895E199FECF0FBAAEBAE09A2F
:1002D0009DB2A3940895E199FECFE598E4980FBAF2
:1002E000AEBA9DBAE29AE19AA3940895F8940024D4
:1002F0001124139400E806BD06BC02E00EBF0FE512
:100300000DBFAADFE4DE3ADF12DF89DE77DFB99ABC
:1003100082DF7894FFCF06E114E633243A94F1F7B4
:100320001A95E1F70A95D1F7089500E010E01A95C3
:10033000F1F70A95E1F70895F8DFC198F6DFC19A61
:10034000F4DFC198F2DFC19AF0DFC198E4DFE3DFA8
:1003500008E00F93469448F0C19AE7DFC198DBDFCD
:100360000F910A95B1F7E1DF0895C19AD4DFC198E2
:02037000F6CFC6
:00000001FF
