:020000020000FC
:100000006AC018951895189518951895189518950B
:10001000189518951895189518950EC015C008EFE5
:10002000A02E00EEB02E08EB0DB9BEB8C29AC09A51
:10003000BA9AB89844270895BC9AB89841E0B29902
:10004000FECFADB8BEB818952FB10FB82FB660115E
:10005000BC98413049F04230F1F0433031F12DB1DC
:100060002F7B2DB92FBE18952C3B59F02D3B49F015
:1000700044272DB12F7B2DB91ED0BC98C1982FBE1F
:100080001895C19A522F51706627D0E0C0E61BD058
:1000900042E02FBE18950FD043E0623021F42DB11D
:1000A0002F7B2DB9C1982FBE1895299363950BD03E
:1000B00042E02FBE1895B898C298BA982EB1207F0A
:1000C000206E2EB90895B89AC29ABA9A2EB12E7F90
:1000D0002E6E2EB90895F89402E00EBF0FE50DBF05
:1000E000002411241394662700E806BD06BC97DFA0
:1000F000C198B99ABC98BB9878946230F1F7F8949B
:10010000D0E0C0E649901BD0499019D007D006D066
:1001100005D004D003D002D07894EFCF06E118E7E1
:1001200033243A94F1F71A95E1F70A95D1F7089537
:1001300000E010E01A95F1F70A95E1F70895EEDF77
:1001400008E00F93469458F0C19AF2DFC198E6DFB9
:100150000F910A95B1F7E2DFE1DFE0DF0895C19A80
:06016000DDDFC198F4CFC1
:00000001FF
