:020000020000FC
:1000000001C1189518951895189518951895189573
:1000100070C018951895189518950EC015C008EF62
:10002000B02E00EEC02E08EB0DB9CEB8C29AC09A21
:10003000BA9AB89844270895BC9AB89841E0B29902
:10004000FECFBDB8CEB818952FB10FB82FB660113E
:10005000BC98413049F04230F1F0433031F12DB1DC
:100060002F7B2DB92FBE18952C3B59F02D3B49F015
:1000700044272DB12F7B2DB91ED0BC98C1982FBE1F
:100080001895C19A522F51706627D0E0C0E61BD058
:1000900042E02FBE18950FD043E0623021F42DB11D
:1000A0002F7B2DB9C1982FBE1895299363950BD03E
:1000B00042E02FBE1895B898C298BA982EB1207F0A
:1000C000206E2EB90895B89AC29ABA9A2EB12E7F90
:1000D0002E6E2EB90895C198B99A0FBC0EBC01E6D8
:1000E00000BF02E007BD07B500FFFDCF06E007BD7A
:1000F00008952FB634B165B0783011F423E027B9F4
:100100007A3011F422E027B9369A703031F0793024
:1001100038F0793011F07A3041F073952FBE189590
:100120003093780060927900F8CF30937A00609233
:100130007B007FEFF2CFF894BC98BB9877270EE056
:1001400006B903E007B9EDE6F0E00CD002E007B92C
:10015000E2E6F0E007D0349A0FEF009379000093C5
:100160007B0008950AE00F93EF93FF93369A369938
:10017000FECF34B045B00CD0FF91EF910F910A95AE
:1001800091F70895F8940092620000926D0008952E
:10019000EF93FF930191102F110FE10FF01D31929A
:1001A00040820395053009F40027FF91EF910193F8
:1001B00005E07724882431904190730C841C0A95C3
:1001C000D1F705E0902EAA2403D0372C482C0895AF
:1001D0003324441801E1771C881C0A9541F4A69445
:1001E000979439144A0410F0710C801C0895331C44
:1001F000441C39184A0820F4390C4A1C8894EBCF67
:100200000894E9CFF894002411241394662700E899
:1002100006BD06BC02E00EBF0FE50DBF5CDFB2DF1E
:100220008ADFFDDE789408E20EBDFFCF6230E9F789
:10023000F894D0E0C0E649901BD0499019D007D07F
:1002400006D005D004D003D002D07894EECF06E1DA
:1002500018E733243A94F1F71A95E1F70A95D1F7A4
:10026000089500E010E01A95F1F70A95E1F7089576
:10027000EEDF08E00F93469458F0C19AF2DFC19880
:10028000E6DF0F910A95B1F7E2DFE1DFE0DF0895E5
:08029000C19ADDDFC198F4CF33
:00000001FF
