:020000020000FC
:1000000018C218951895189518951895189518955B
:100010001895189528C11895189519C020C008EB97
:100020000DB900EE0EB9C29AC09ABA9AB898442790
:100030000092600000916D000093610000916E00DD
:100040000093620000916F00009363000895B299DD
:10005000FECF40E82DB120642DB941D018952FB6C0
:100060002FB10FB847FD05C046FD0FC044FD23C0AA
:1000700020C020FB2E7F2C3BD9F44F7745F9C0E6FA
:10008000D0E024D04064407F14C04F7B28D0242F80
:1000900023952F702C3049F0407F422B406145FF63
:1000A00008C0B89A29912FB904C045FF10926B007F
:1000B00013D02FBE189545FD04C0299307D0406486
:1000C000F8CFB8982EE72EB94064F3CFB89AC29A09
:1000D000BA9A2EE72EB908952DB12F7B2DB9B89875
:1000E000C298BA9820EE2EB90895C198B99A0FBC5B
:1000F0000EBC6627009270000092640001E600BF0B
:1001000002E007BD07B500FFFDCF06E007BD08957B
:1001100034B045B0583019F403E007B904C05A3080
:1001200011F402E007B9369A503031F0593030F00E
:10013000593011F05A3051F053950895F894309297
:1001400067004092680078942BD1F6CFF8943092F3
:10015000690040926A00789438D15FEFEDCFF8944F
:1001600008E104BBBC98BB98552706E806B903E034
:1001700007B9E0E8F0E00BD0609273007092740071
:1001800002E007B9E5E7F0E002D0349A08950AE00A
:100190000F93EF93FF93369A3699FECF34B045B064
:1001A0000CD0FF91EF910F910A9591F70895F89473
:1001B00000927500009280000895EF93FF930191E3
:1001C000102F110FE10FF01D319240820395053081
:1001D00009F40027FF91EF91019305E08824992409
:1001E00031904190830C941C0A95D1F705E0A02E24
:1001F000BB2403D0382C492C08953324441801E142
:10020000881C991C0A9541F4B694A7943A144B049F
:1002100010F0810C901C0895331C441C3A184B08B4
:1002200020F43A0C4B1C8894EBCF0894E9CF01E8FA
:100230000CBD02E00ABD03E003BF02BE0DE709BD2D
:1002400000E109BFCC24089503E0902E08EE802E33
:10025000BB24A0906D00D1DFD82C0895F5DFED2CE4
:1002600000E00CBD08952FB66068EA9411F02FBE2F
:100270001895ED2C20916C002C1102C02FBE189502
:10028000C21618F0CA942FBE1895C3942FBE1895A5
:1002900005E0B02E00916D000FD000916E000CD0E3
:1002A00000916F0009D030D000110895BA94A32CAA
:1002B000F8944AD0789408953FD0A01629F0BA94C3
:1002C0000A2DF89441D0789408951ED001110CD0D5
:1002D00005E0B02E31D0A0926D002ED0A0926E001D
:1002E0002BD0A0926F00089505E0B02E05E0A02E5F
:1002F0002BD00AE0A02E28D008E7A02E25D004D0CD
:10030000BA94A32C21D0089505E0B02E03E0402E2E
:100310000CE8332411D018E03A2430FA3A24A69499
:1003200036940EF430261A95B9F74A9499F701E0FD
:1003300003D03A1000270895E199FECF0FBABEBA54
:10034000E09AADB2B3940895E199FECFE598E498B0
:100350000FBABEBAADBAE29AE19AB3940895009288
:100360006B00E0E6F0E001911191319041900015B1
:1003700019F0031508F4002700936C00431408F4E7
:10038000342C30926E0040926F0000916D00011786
:1003900031F0143008F414E010936D0055DF089527
:1003A000E5E7F0E00ADF05E0330C441C0A95E1F7CD
:1003B000832C942C0BE9A02EBB241FDFF894809291
:1003C00071008092650078940895E0E8F0E0F5DE31
:1003D00080907300909074003818490810F4382CFD
:1003E000492C06E0330C441C0A95E1F7832C942C2D
:1003F00002EFA02EBB2401DFF8948092720080925D
:1004000066007894089567FF0FC06F771EB500915E
:1004100071000C1549F048F41F3F31F013951EBDD3
:10042000109370001093640008951030E9F31A954A
:10043000F6CFF89400241124139400E806BD06BCFE
:1004400002E00EBF0FE50DBF40DF4FDEB0DE87DEFE
:10045000E6DDEDDE03DF369A78943699FECF58DE7E
:0C046000D2DF00916B0000117ADFF7CFB3
:00000001FF
