:020000020000FC
:1000000076C01895189518951895189518951895FF
:10001000189518951895189518950DC014C000EEF0
:10002000B02EC298BA98C098B89808EB0DB900EFF6
:100030000EB944270895BC9A41E02DB120642DB932
:1000400032D0BEB818952FB6413031F04230C9F0E9
:100050004330E1F02FBE189520B32E3559F02F35DF
:1000600049F044272DB12F7B2DB91DD0BC98C198E4
:100070002FBE1895C19A522F51701DD042E02FBE4D
:100080001895BC9810D043E02FBE189520B32F933D
:1000900012D044272DB12F7B2DB905D0C1982F91B7
:1000A00012D02FBE1895B898C298BA982EB1207F5A
:1000B000206E2EB90895B89AC29ABA9A2EB12E7FA0
:1000C0002E6E2EB9089525D02F9338E0269558F03E
:1000D000C19A29D0C1981DD03A95C1F71AD019D02C
:1000E00018D02F910895C19A14D0C198F4CFF894E4
:1000F00002E00EBF0FE50DBF00241124139400E8A9
:1001000006BD06BC8CDFC198B99ABC98BB987894A0
:10011000FFCF08E118E733243A94F1F71A95E1F795
:100120000A95D1F7089500E010E01A95F1F70A95C5
:04013000E1F7089556
:00000001FF
