:020000020000FC
:10000000F9C018951895189518951895189518957C
:1000100066C018951895189518950CC013C008EB74
:100020000DB900EE0EB9C29AC09ABA9AB898442790
:1000300066270895B299FECF42E02DB120642DB914
:100040003AD018952FB62FB10FB841FD05C042FD2B
:100050000FC044FD19C024C020FB2E7F2C3BF9F4B7
:100060004D7F43F9C0E6D0E01DD04460662718C03C
:100070004B7F21D06395673091F0406143FF10C002
:10008000B89A29912FB90CC043FD04C029930AD016
:10009000446006C0B8982EE72EB9446001C008D06D
:1000A0002FBE1895B89AC29ABA9A2EE72EB908951B
:1000B0002DB12F7B2DB9B898C298BA9820EE2EB9E1
:1000C0000895C198B99A0FBC0EBC01E600BF02E0CA
:1000D00007BD07B500FFFDCF06E007BD08952FB6A9
:1000E00034B165B0783011F423E027B97A3011F4D7
:1000F00022E027B9369A703031F0793038F0793013
:1001000011F07A3041F073952FBE189530937C0032
:1001100060927D00F8CF30937E0060927F007FEF89
:10012000F2CFF89408E104BBBC98BB9877270EE0A7
:1001300006B903E007B9E1E7F0E00CD002E007B947
:10014000E6E6F0E007D0349A0FEF00937D000093CD
:100150007F0008950AE00F93EF93FF93369A369944
:10016000FECF34B045B00CD0FF91EF910F910A95BE
:1001700091F70895F8940092660000927100089536
:10018000EF93FF930191102F110FE10FF01D3192AA
:1001900040820395053009F40027FF91EF91019308
:1001A00005E07724882431904190730C841C0A95D3
:1001B000D1F705E0902EAA2403D0372C482C0895BF
:1001C0003324441801E1771C881C0A9541F4A69455
:1001D000979439144A0410F0710C801C0895331C54
:1001E000441C39184A0820F4390C4A1C8894EBCF77
:1001F0000894E9CFF89400241124139400E806BD74
:1002000006BC02E00EBF0FE50DBF5BDFB3DF89DF89
:0602100006DF7894FFCF29
:00000001FF
