:020000020000FC
:100000000FC2189518951895189518951895189564
:100010001895189526C11895189519C020C008EB99
:100020000DB900EE0EB9C29AC09ABA9AB898442790
:100030000092600000916C000093610000916D00DF
:100040000093620000916E00009363000895B299DE
:10005000FECF40E82DB120642DB941D018952FB6C0
:100060002FB10FB847FD05C046FD0FC044FD23C0AA
:1000700020C020FB2E7F2C3BD9F44F7745F9C0E6FA
:10008000D0E024D04064407F14C04F7B28D0242F80
:1000900023952F702C3049F0407F422B406145FF63
:1000A00008C0B89A29912FB904C045FF10926B007F
:1000B00013D02FBE189545FD04C0299307D0406486
:1000C000F8CFB8982EE72EB94064F3CFB89AC29A09
:1000D000BA9A2EE72EB908952DB12F7B2DB9B89875
:1000E000C298BA9820EE2EB90895C198B99A0FBC5B
:1000F0000EBC77270092640001E600BF02E007BD56
:1001000007B500FFFDCF06E007BD089534B045B048
:10011000583019F403E007B904C05A3011F402E072
:1001200007B9369A503031F0593030F0593011F06B
:100130005A3051F053950895F894309267004092E8
:10014000680078942CD1F6CFF894309269004092F0
:100150006A00789437D15FEFEDCFF89408E104BBE3
:10016000BC98BB98552706E806B903E007B9EDE748
:10017000F0E00BD0309270004092710002E007B9BD
:10018000E2E7F0E002D0349A08950AE00F93EF938B
:10019000FF93369A3699FECF34B045B00CD0FF911C
:1001A000EF910F910A9591F70895F89400927200DB
:1001B00000927D000895EF93FF930191102F110F8E
:1001C000E10FF01D319240820395053009F40027BC
:1001D000FF91EF91019305E088249924319041909B
:1001E000830C941C0A95D1F705E0A02EBB2403D004
:1001F000382C492C08953324441801E1881C991C9B
:100200000A9541F4B694A7943A144B0410F0810C6B
:10021000901C0895331C441C3A184B0820F43A0CE7
:100220004B1C8894EBCF0894E9CF01E80CBD02E0A9
:100230000ABD03E003BF02BE0DE709BD00E109BF2F
:10024000CC24089503E0902E08EE802EBB24A090CD
:100250006C00D1DFD82C0895F5DFED2C00E00CBD4B
:1002600008952FB67068EA9411F02FBE1895ED2C02
:100270006C1102C02FBE1895C61618F0CA942FBE76
:100280001895C3942FBE189505E0B02E00916C0010
:100290000FD000916D000CD000916E0009D030D0CD
:1002A00000110895BA94A32CF8944AD07894089534
:1002B0003FD0A01629F0BA940A2DF89441D0789432
:1002C00008951ED001110CD005E0B02E31D0A092BF
:1002D0006C002ED0A0926D002BD0A0926E000895DD
:1002E00005E0B02E05E0A02E2BD00AE0A02E28D0ED
:1002F00008E7A02E25D004D0BA94A32C21D00895CD
:1003000005E0B02E03E0402E0CE8332411D018E0B5
:100310003A2430FA3A24A69436940EF430261A95EC
:10032000B9F74A9499F701E003D03A1000270895ED
:10033000E199FECF0FBABEBAE09AADB2B394089578
:10034000E199FECFE598E4980FBABEBAADBAE29A49
:10035000E19AB394089500926B00E0E6F0E0019119
:10036000119131904190041510F0042D05C0001535
:1003700019F0031508F40027602F431408F4342CF7
:1003800030926D0040926E0000916C00011731F0C8
:10039000143008F414E010936C0054DF0895E2E781
:1003A000F0E009DF05E0330C441C0A95E1F7832CEB
:1003B000942C03E7A02EBB241EDF80926F00809256
:1003C00065000895EDE7F0E0F6DE80907000909013
:1003D00071003818490810F4382C492C06E0330C09
:1003E000441C0A95E1F7832C942C02EFA02EBB2429
:1003F00002DF80926600089577FF0DC07F771EB5FB
:1004000000916F000C1539F038F41F3F21F013955F
:100410001EBD1093640008951030E9F31A95F8CFCB
:10042000F894002411241394662700E806BD06BC46
:1004300002E00EBF0FE50DBF44DF57DEB6DE8DDEF6
:10044000EEDDF3DE09DF369A789466E63699FECF64
:060450005DDED2DFFBCFF0
:00000001FF
