:020000020000FC
:10000000C098C298B898BA9808EFA02E00EEB02E0B
:1000100008EB0DB9BEB84427089541E0ADB8BEB8AD
:1000200018952FB6413021F0423043302FBE18953D
:1000300020B32F3D41F02F3531F0442728EB2DB967
:10004000BEB82FBE1895B89A2B2D2E602EB942E05F
:100050000EC0189518951895189518951895189517
:1000600018951895189518951895D7CFDACFF89454
:1000700002E00EBF0FE50DBF002411241394C0DF72
:00000001FF
