:020000020000FC
:1000000042C0189518951895189518951895189533
:10001000189518951895189518950EC011C0C09888
:10002000C298B898BA9808EFA02E00EEB02E08EB50
:100030000DB9BEB84427089541E0ADB8BEB81895D3
:100040002FB6413029F04230C9F043302FBE189509
:1000500020B32F3D49F02F3539F0442728EB2DB937
:10006000BEB8C1982FBE1895522F5078B89A2B2D34
:100070002E602EB942E0C19A2FBE1895B898BEB82E
:1000800043E02FBE1895F89402E00EBF0FE50DBFB8
:10009000002411241394C3DFC198B99ABC98BB986B
:0400A0007894FFCF82
:00000001FF
